{
  "_format": "hh-sol-artifact-1",
  "contractName": "Counter",
  "sourceName": "contracts/02_Counter.sol",
  "abi": [
    {
      "inputs": [],
      "name": "count",
      "outputs": [
        {
          "internalType": "uint256",
          "name": "",
          "type": "uint256"
        }
      ],
      "stateMutability": "nonpayable",
      "type": "function"
    }
  ],
  "bytecode": "0x608060405234801561001057600080fd5b50610318806100206000396000f3fe608060405234801561001057600080fd5b506004361061002b5760003560e01c806306661abd14610030575b600080fd5b61003861004e565b6040516100459190610186565b60405180910390f35b6000806000815480929190610062906101d0565b91905055506100a86040518060400160405280600f81526020017f436f756e746572206973206e6f772000000000000000000000000000000000008152506000546100b0565b600054905090565b61014882826040516024016100c69291906102b2565b6040516020818303038152906040527fb60e72cc000000000000000000000000000000000000000000000000000000007bffffffffffffffffffffffffffffffffffffffffffffffffffffffff19166020820180517bffffffffffffffffffffffffffffffffffffffffffffffffffffffff838183161783525050505061014c565b5050565b60006a636f6e736f6c652e6c6f679050600080835160208501845afa505050565b6000819050919050565b6101808161016d565b82525050565b600060208201905061019b6000830184610177565b92915050565b7f4e487b7100000000000000000000000000000000000000000000000000000000600052601160045260246000fd5b60006101db8261016d565b91507fffffffffffffffffffffffffffffffffffffffffffffffffffffffffffffffff82141561020e5761020d6101a1565b5b600182019050919050565b600081519050919050565b600082825260208201905092915050565b60005b83811015610253578082015181840152602081019050610238565b83811115610262576000848401525b50505050565b6000601f19601f8301169050919050565b600061028482610219565b61028e8185610224565b935061029e818560208601610235565b6102a781610268565b840191505092915050565b600060408201905081810360008301526102cc8185610279565b90506102db6020830184610177565b939250505056fea2646970667358221220c340e55a5f79dbe9c68dbd931b1126221832e97a9cbb88fc693ab98d6411c7bf64736f6c634300080a0033",
  "linkReferences": {},
  "deployedLinkReferences": {}
}